:020000040800F2
:10000000002800208D140008651300086B130008F9
:1000100071130008771300087D130008000000002A
:100020000000000000000000000000008313000832
:100030008F130008000000009B130008A71300089E
:10004000D5140008D5140008D5140008D5140008EC
:10005000D5140008D5140008B3130008C113000814
:10006000CF130008DD130008EB130008D5140008B7
:10007000D5140008D5140008D5140008D5140008BC
:10008000D5140008D5140008D5140008D5140008AC
:10009000D5140008D5140008D5140008F913000879
:1000A000D5140008D5140008D5140008D51400088C
:1000B000D5140008D514000800000000D51400086D
:1000C000D51400080000000000000000D51400084E
:1000D00000000000D5140008D5140008000000003E
:1000E000D5140008D5140008D5140008000000003D
:1000F0000000000000000000000000000000000000
:0C01000000000000000000005FF808F1A3
:10010C0010B5054C237833B9044B13B10448AFF345
:10011C0000800123237010BD70000020000000003F
:10012C00AC2E000808B5034B1BB103490348AFF3D1
:10013C00008008BD0000000074000020AC2E0008F8
:10014C0080B588B000AFF860B9601346FB71BB682E
:10015C00197807F11A0307F11B02F86800F0BFF9D0
:10016C00F861FB69002B06D1FA790023B968F868AD
:10017C0000F044F915E007F114031946F86900F092
:10018C0013F80346002B06D17B69FA79B968F86835
:10019C0000F0C8F805E0FA790123B968F86800F0B6
:1001AC002DF92037BD4680BD80B586B000AF786094
:1001BC0039607B681B78052B00F2AE8001A252F8E7
:1001CC0023F000BFE9010008F30100083302000826
:1001DC0073020008B5020008010300087B685A6826
:1001EC003B681A6099E07B689B6807F11402114622
:1001FC001846FFF7D9FF0346002B01D001238DE0F1
:10020C007B68DB6807F1100211461846FFF7CCFF3C
:10021C000346002B01D0012380E07A693B691A4424
:10022C003B681A6079E07B689B6807F11402114601
:10023C001846FFF7B9FF0346002B01D001236DE0F0
:10024C007B68DB6807F1100211461846FFF7ACFF1C
:10025C000346002B01D0012360E07A693B69D21A76
:10026C003B681A6059E07B689B6807F114021146E1
:10027C001846FFF799FF0346002B01D001234DE0F0
:10028C007B68DB6807F1100211461846FFF78CFFFC
:10029C000346002B01D0012340E07B693A6903FB44
:1002AC0002F23B681A6038E07B689B6807F10C022D
:1002BC0011461846FFF778FF0346002B01D00123A7
:1002CC002CE07B68DB6807F1080211461846FFF743
:1002DC006BFF0346002B01D001231FE0BB68002BF2
:1002EC0001D101231AE0FA68BB68B2FBF3F23B6858
:1002FC001A6012E07B689B6807F1080211461846E9
:10030C00FFF752FF0346002B01D0012306E0FB68E8
:10031C005A423B681A6000E000BF002318461837A9
:10032C00BD4680BD80B487B000AFF860B9603B605B
:10033C001346FB710023FB7519E039682E4BA3FBA8
:10034C000123DA0813469B0013445B00CA1AD2B28D
:10035C00FB7DF9680B443032D2B21A703B68264AE6
:10036C00A2FB0323DB083B60FB7D0133FB753B6881
:10037C00002B03D0FA7DFB799A42DED3FB7DBB7553
:10038C0007E0BB7DFA68134420221A70BB7D013351
:10039C00BB75BA7DFB799A42F3D300237B751CE0C5
:1003AC007B7DFA6813441B783B75FB7D5A1E7B7D65
:1003BC00D31A1A46FB681A447B7DF9680B441278F1
:1003CC001A70FB7D5A1E7B7DD31A1A46FB681344A8
:1003DC003A7D1A707B7D01337B75FB7D5B08DBB24C
:1003EC007A7D9A42DCD3BB68FA7D1A7000BF1C3749
:1003FC00BD4680BC704700BFCDCCCCCC80B487B0A0
:10040C0000AFF860B96011461A460B46FB711346F3
:10041C00BB71BB79002B31D1FB6850221A70FB6881
:10042C00013341221A70FB68023352221A70FB68A6
:10043C00033353221A70FB68043345221A70FB688D
:10044C00053345221A70FB68063352221A70FB687A
:10045C00073352221A700823FB7507E0FB7DFA68FC
:10046C00134420221A70FB7D0133FB75FA7DFB7956
:10047C009A42F3D3BB6808221A702BE0BB79012B8C
:10048C0028D1FB6844221A70FB68013349221A7088
:10049C00FB68023356221A70FB68033342221A702F
:1004AC00FB68043359221A70FB68053330221A702A
:1004BC000623BB7507E0BB7DFA68134420221A7033
:1004CC00BB7D0133BB75BA7DFB799A42F3D3BB6814
:1004DC0006221A7000BF1C37BD4680BC704780B521
:1004EC008CB002AFF8607A603B600B46FB72F97A15
:1004FC003B687A68F86800F04EF878627B6A002BEB
:10050C003AD1002343E07B6819783B681A7807F1ED
:10051C001B0007F1140300930346F86800F05FF921
:10052C00FB7E002B01D1002331E07B692B2B02D009
:10053C007B692D2B2AD1F97A3B687A68F86800F030
:10054C002AF838623B6A002B01D100231FE01020EF
:10055C0002F0AEFB0346FB617B692B2B01D1012220
:10056C0000E00222FB691A70FB697A6A9A60FB69E7
:10057C003A6ADA60FB697B623B681A78FB7A11464F
:10058C00184600F018F90346002BBCD07B6A1846BD
:10059C002837BD4680BD80B58CB002AFF8607A605C
:1005AC003B600B46FB72F97A3B687A68F86800F09E
:1005BC004DF878627B6A002B3AD1002342E07B68CD
:1005CC0019783B681A7807F11B0007F114030093A4
:1005DC000346F86800F003F9FB7E002B01D10023E1
:1005EC0030E07B692A2B02D07B692F2B29D1F97A39
:1005FC003B687A68F86800F029F838623B6A002B8F
:10060C0001D100231EE0102002F052FB0346FB61D7
:10061C007B692A2B01D1032200E00422FB691A70AA
:10062C00FB697A6A9A60FB693A6ADA60FB697B62F9
:10063C00F97A3B687A68F86800F07AF80346002B80
:10064C00BDD07B6A18462837BD4680BD80B58CB0BE
:10065C0002AFF8607A603B600B46FB72F97A3B683C
:10066C007A68F86800F064F80346002B01D0002388
:10067C005AE07B6819783B681A7807F1170007F184
:10068C00100300930346F86800F0A9F8FB7D002BDB
:10069C000CD1102002F00CFB0346BB61BB6900229D
:1006AC001A703A69BB695A60BB693DE03B69282BFB
:1006BC001DD1F97A3B687A68F868FFF710FFF8618A
:1006CC007B6819783B681A7807F1170007F110035B
:1006DC0000930346F86800F082F8FB7D012B04D1EF
:1006EC003B69292B01D1FB691EE000231CE03B690F
:1006FC002D2B18D1F97A3B687A68F868FFF7A6FFBA
:10070C0078627B6A002B01D100230DE0102002F0EF
:10071C00CFFA03463B623B6A05221A703B6A7A6A3F
:10072C009A603B6A00E0002318462837BD4680BD1E
:10073C0080B584B000AFF8607A603B600B46FB720A
:10074C003B681B78FA7A9A4201D801232FE03B6868
:10075C001A787B681A707B681B781A46FB681344FE
:10076C001B78184600F08BF80346002B18D000BFFE
:10077C003B681B780133DAB23B681A703B681B7814
:10078C00FA7A9A4212D93B681B781A46FB681344D2
:10079C001B78184600F073F80346002BE8D105E0EF
:1007AC003B681B780133DAB23B681A700023184699
:1007BC001037BD4680BD80B483B000AF03460A46F7
:1007CC00FB711346BB71BA79FB799A422CBF01239A
:1007DC000023DBB218460C37BD4680BC704780B492
:1007EC0087B000AFF8607B600B46FB721346BB72A0
:1007FC00FB7AFA6813441B782F2B30D9FB7AFA68F2
:10080C0013441B78392B2AD87B6800221A70FB7A88
:10081C00FA6813441B78303B1A463B6A1A60FB7A21
:10082C000133FB7516E03B6A1A6813469B001344B0
:10083C005B001A463B6A1A603B6A1B68FA7DF968D2
:10084C000A4412781344A3F130023B6A1A60FB7D10
:10085C000133FB75FA7DBB7A9A42E4D309E07B68DD
:10086C0001221A70FB7AFA6813441B781A463B6A09
:10087C001A6000BF18461C37BD4680BC704780B458
:10088C0083B000AF0346FB71FB792F2B04D9FB79A6
:10089C00392B01D8012300E00023DBB218460C37BA
:1008AC00BD4680BC704780B584B000AF7860084608
:1008BC0011461A460346FB700B46BB7013467B7001
:1008CC000021002000F0DDF9BB78FB7311E0FA7B0E
:1008DC003B7E9A4207D2FB7B7A6813441B781846FE
:1008EC0000F0C0F902E0202000F0BCF9FB7B0133E2
:1008FC00FB73FA7BB9783B7F0B449A42E7DBFA78BF
:10090C00BB78D31ADBB21946002000F0BAF900BF4D
:10091C001037BD4680BD80B582B000AF3A601A4634
:10092C000346FB710B46BB7113467B710021012002
:10093C0000F0A7F9FB793033DBB2184600F092F9DE
:10094C00202000F08FF9FA7913465B0013443A68C3
:10095C0013441B78184600F085F9202000F082F92A
:10096C00FA7913465B0013443A6813445B781846D3
:10097C0000F078F9202000F075F9FA7913465B0045
:10098C0013443A6813449B78184600F06BF93B7C8F
:10099C001946002000F075F900BF0837BD4680BD30
:1009AC0080B487B000AFF860B96011461A460B46A8
:1009BC00FB711346BB71BB6A1B7897F82C209A42CB
:1009CC003FD9BB6A1B78FB750BE0FB7D013BFA68DA
:1009DC001A44FB7DF9680B4412781A70FB7D013BBD
:1009EC00FB753B6A1B78FA7D9A42EED8FA7913466E
:1009FC005B001344BA68D118BA793B6A1B78184665
:100A0C00FB6803448A5C1A70BB6A1B780133DAB248
:100A1C00BB6A1A703B6A1B780133DAB23B6A1A70F4
:100A2C007B6A1B781A4697F8303013443A6A12786E
:100A3C00934207DC7B6A1B780133DAB27B6A1A704B
:100A4C0000E000BF1C37BD4680BC704780B485B049
:100A5C0000AF0346B9607A60FB73BB681B78002B50
:100A6C0005D0BB681B78013BDAB2BB681A707B6897
:100A7C001A78BB681B789A4205D97B681B78013BB6
:100A8C00DAB27B681A7000BF1437BD4680BC704761
:100A9C0080B485B000AFB9607A601A460346FB7328
:100AAC001346BB73BB681B78FA7B9A4205D9BB68AB
:100ABC001B780133DAB2BB681A707B681B781A4654
:100ACC00BB7B1344BA681278934205DC7B681B78B5
:100ADC000133DAB27B681A7000BF1437BD4680BC94
:100AEC00704780B483B000AF78600B46FB707B68B6
:100AFC001B780133DAB27B681A707B681B78FA7842
:100B0C00B3FBF2F101FB02F29B1ADAB27B681A70AA
:100B1C0000BF0C37BD4680BC7047000080B586B066
:100B2C0002AF0346FB710B46BB7113467B71FB791D
:100B3C003B73BB797B73094B186807F10C024FF0C0
:100B4C00FF33009302237C2101F05EF97B79184678
:100B5C0000F01EFD00BF1037BD4680BD8C0000208C
:100B6C0080B586B002AF0346FB710B46BB711346D2
:100B7C007B71FB793B73BB797B73094B186807F16D
:100B8C000C024FF0FF3300930223D62101F03CF905
:100B9C007B79184600F0FCFC00BF1037BD4680BDC9
:100BAC008C00002080B582B000AF7860294A7B6849
:100BBC001360294B01221A70284B00221A70284B03
:100BCC0000221A70322000F0E3FC0522282180203C
:100BDC00FFF7A4FF01220C218020FFF79FFF0222C8
:100BEC0001218020FFF79AFF012206218020FFF7C8
:100BFC0095FF002200212F20FFF7B2FF00222021B9
:100C0C000020FFF7ADFF002200210120FFF7A8FF15
:100C1C00002201210220FFF7A3FF00220421032060
:100C2C00FFF79EFF0022FF210620FFF799FF00220D
:100C3C00FF210520FFF794FF0022FF210420FFF77E
:100C4C008FFF0022FF210720FFF78AFF00BF083724
:100C5C00BD4680BD8C00002090000020910000203B
:100C6C009200002080B582B000AF0346FB71FB7987
:100C7C00012219464020FFF751FF00BF0837BD463F
:100C8C0080BD80B582B000AF03460A46FB711346A7
:100C9C00BB71FB79002B01D1002200E04022BB7913
:100CAC001343DBB263F07F03DBB2012219468020D1
:100CBC00FFF734FF00BF0837BD4680BD80B582B05A
:100CCC0000AF0346FB710F4AFB7913700E4B1B7878
:100CDC009B005AB20B4B1B785B005BB213435AB2AE
:100CEC000A4B1B785BB213435BB243F008035BB255
:100CFC00DBB2012219468020FFF710FF00BF083736
:100D0C00BD4680BD91000020900000209200002084
:100D1C0080B582B000AF0346FB710F4AFB791370AC
:100D2C000E4B1B789B005AB20D4B1B785B005BB2D1
:100D3C0013435AB2084B1B785BB213435BB243F0BC
:100D4C0008035BB2DBB2012219468020FFF7E6FEF6
:100D5C0000BF0837BD4680BD9200002090000020E7
:100D6C009100002080B584B002AF00F0AFFB00F022
:100D7C0075F800F0DDF800F0ADF80023FB7106E02B
:100D8C00FB792C4A2021D154FB790133FB71FB797F
:100D9C001F2BF5D9284B00221A70284B00221A70F1
:100DAC00274B00221A70274B00221A702648FFF797
:100DBC00F9FE7320FFF756FF7420FFF753FF002155
:100DCC000020FFF75EFF0120FFF778FF0120FFF7FF
:100DDC009FFF1E4B01221A701D4B01221A701B4BD8
:100DEC001B78002B0FD0194B00221A70124B19785C
:100DFC00134B1A78114B1B78102001902020009077
:100E0C000C48FFF750FD124B1B78002BE7D0104B12
:100E1C0000221A700F4B1878074B1A78084B1B7866
:100E2C00D31ADBB2009306230B4A1021FFF773FD94
:100E3C00D5E700BFEC0000200C0100200E010020C3
:100E4C000D01002011010020940000200F01002052
:100E5C0010010020E80000200000002080B590B0B8
:100E6C0000AF07F1180328220021184601F0D4FF27
:100E7C003B1D00221A605A609A60DA601A610223E4
:100E8C00BB610123BB621023FB6200237B6307F170
:100E9C001803184601F010FB0346002B01D000F09C
:100EAC00E1F90F237B600023BB600023FB60002370
:100EBC003B6100237B613B1D0021184601F07EFD48
:100ECC000346002B01D000F0CDF900BF4037BD46E2
:100EDC0080BD000080B500AF124B134A1A60114B55
:100EEC00124A5A600F4B00229A600E4B0022DA60B5
:100EFC000C4B4FF480421A610A4B00225A61094B89
:100F0C0000229A61074B0022DA61064B00221A621A
:100F1C00044800F035FE0346002B01D000F0A2F986
:100F2C0000BF80BD9400002000540040A08601004A
:100F3C0080B588B000AF07F1100300221A605A6028
:100F4C009A60DA60424B9B69414A43F0100393610B
:100F5C003F4B9B6903F01003FB60FB683C4B9B69A8
:100F6C003B4A43F004039361394B9B6903F0040340
:100F7C00BB60BB68364B9B69354A43F008039361F1
:100F8C00334B9B6903F008037B607B6800224FF4B2
:100F9C000051304800F0AAFD4FF400533B6101238F
:100FAC007B610223BB610223FB6107F1100319462D
:100FBC00284800F01FFCFD233B61274B7B6100237D
:100FCC00BB6107F110031946244800F013FC0223FF
:100FDC003B61214B7B610023BB6107F11003194678
:100FEC001F4800F007FC00220021062000F0CBFB7C
:100FFC00062000F0E4FB00220021072000F0C3FBD8
:10100C00072000F0DCFB00220021082000F0BBFBD5
:10101C00082000F0D4FB00220021092000F0B3FBD3
:10102C00092000F0CCFB002200210A2000F0ABFBD1
:10103C000A2000F0C4FB00220021172000F0A3FBC3
:10104C00172000F0BCFB00BF2037BD4680BD00BFA1
:10105C000010024000100140000011100008014077
:10106C00000C014080B588B006AF0346FB80734B83
:10107C001B78002B40F0DD80704B01221A70FB882E
:10108C00802B00F0C280802B00F3CF80202B49DC1A
:10109C00002B40F3CA80013B1F2B00F2C68001A23B
:1010AC0052F823F0371100080F120008371200080D
:1010BC00D311000837120008371200083712000845
:1010CC00E91100083712000837120008371200081F
:1010DC0037120008371200083712000837120008C0
:1010EC00FF110008371200083712000837120008E9
:1010FC0037120008371200083712000837120008A0
:10110C00371200083712000837120008371200088F
:10111C00371200083712000837120008371200087F
:10112C006B110008402B34D07FE04FF40051444841
:10113C0000F0F4FC434B1A78102304932023039300
:10114C00414B0293414B0193414B00930023414986
:10115C004148FFF725FC414B01221A7065E04FF422
:10116C000051374800F0DAFC364B1A781023049300
:10117C0020230393344B0293344B0193344B009351
:10118C00012334493448FFF70BFC344B01221A700D
:10119C004BE04FF400512A4800F0C0FC294B1A7860
:1011AC001023049320230393274B0293274B019383
:1011BC00274B0093022327492748FFF7F1FB274BC6
:1011CC0001221A7031E0204B1B78204A2049184626
:1011DC00FFF73CFC214B01221A7026E01A4B1878C1
:1011EC0010231A4A1A49FFF753FC1C4B01221A70A0
:1011FC001BE006211348FFF774FC194B01221A70EF
:10120C0013E0164B01221A700FE020220E491248EF
:10121C00FEF796FF0C4B1A780D4B1A700B4B0022F5
:10122C001A700E4B01221A7000BF044B00221A7068
:10123C0000E000BF0837BD4680BD00BF1101002093
:10124C0000100140E80000200E0100200D010020DC
:10125C000C01002000000020EC0000200F010020F9
:10126C001001002080B400AF72B600BFFEE7000092
:10127C0080B483B000AF0E4B9B690D4A43F0010361
:10128C0093610B4B9B6903F001037B607B68084BFC
:10129C00DB69074A43F08053D361054BDB6903F0EC
:1012AC0080533B603B6800BF0C37BD4680BC704729
:1012BC000010024080B58AB000AF786007F11403CB
:1012CC0000221A605A609A60DA607B681B681E4ABA
:1012DC00934234D11D4B9B691C4A43F00803936124
:1012EC001A4B9B6903F008033B613B694FF4407355
:1012FC007B611223BB610023FB6103233B6207F17B
:10130C0014031946124800F075FA124B5B687B62A5
:10131C007B6A43F0E0637B627B6A43F002037B628F
:10132C000C4A7B6A5360094BDB69084A43F400138F
:10133C00D361064BDB6903F40013FB60FB6800BF51
:10134C002837BD4680BD00BF00540040001002404D
:10135C00000C01400000014080B400AFFEE780B4F7
:10136C0000AFFEE780B400AFFEE780B400AFFEE74D
:10137C0080B400AFFEE780B400AF00BFBD4680BCB8
:10138C00704780B400AF00BFBD4680BC704780B4CE
:10139C0000AF00BFBD4680BC704780B500AF00F009
:1013AC00DBF800BF80BD80B500AF012000F0D0FBA2
:1013BC0000BF80BD80B500AF022000F0C9FB00BFAC
:1013CC0080BD80B500AF042000F0C2FB00BF80BD23
:1013DC0080B500AF082000F0BBFB00BF80BD80B51E
:1013EC0000AF102000F0B4FB00BF80BD80B500AF93
:1013FC00202000F0ADFB402000F0AAFB802000F084
:10140C00A7FB00BF80BD000080B586B000AF786040
:10141C00144A154BD31A7B617B693B61134B1B68D8
:10142C00002B02D1114B124A1A60104B1A687B68C0
:10143C0013443A699A4207D201F006FD03460C2286
:10144C001A604FF0FF3309E0084B1B68FB60074B39
:10145C001A687B681344054A1360FB6818461837F2
:10146C00BD4680BD002800200004000014010020AF
:10147C006802002080B400AF00BFBD4680BC70473E
:10148C00FFF7F8FF0B480C490C4A002302E0D45834
:10149C00C4500433C4188C42F9D3094A094C0023B4
:1014AC0001E013600432A242FBD301F0D3FCFFF73E
:1014BC0059FC70470000002070000020F82E000836
:1014CC007000002064020020FEE7000080B500AF31
:1014DC00084B1B68074A43F010031360032000F00D
:1014EC0047F90F2000F008F8FFF7C2FE002318465A
:1014FC0080BD00BF0020024080B582B000AF786094
:10150C00124B1A68124B1B7819464FF47A73B3FBC3
:10151C00F1F3B2FBF3F3184600F05FF90346002B2E
:10152C0001D001230EE07B680F2B0AD800227968CA
:10153C004FF0FF3000F027F9064A7B681360002358
:10154C0000E0012318460837BD4680BD140000207A
:10155C001C0000201800002080B400AF054B1B7845
:10156C001A46054B1B681344034A136000BFBD4663
:10157C0080BC70471C0000201801002080B400AF14
:10158C00024B1B681846BD4680BC704718010020F2
:10159C0080B584B000AF7860FFF7F0FFB8607B686F
:1015AC00FB60FB68B3F1FF3F05D00A4B1B781A4672
:1015BC00FB681344FB6000BFFFF7E0FF0246BB680B
:1015CC00D31AFA689A42F7D800BF00BF1037BD464D
:1015DC0080BD00BF1C00002080B485B000AF7860D7
:1015EC007B6803F00703FB600C4BDB68BB60BA68DD
:1015FC004FF6FF031340BB60FB681A02BB68134332
:10160C0043F0BF6343F40033BB60044ABB68D36050
:10161C0000BF1437BD4680BC704700BF00ED00E032
:10162C0080B400AF044BDB681B0A03F007031846B9
:10163C00BD4680BC704700BF00ED00E080B483B0B5
:10164C0000AF0346FB7197F90730002B0BDBFB79DE
:10165C0003F01F02064997F907305B09012000FAD5
:10166C0002F241F8232000BF0C37BD4680BC704706
:10167C0000E100E080B483B000AF03463960FB7139
:10168C0097F90730002B0ADB3B68DAB20C4997F963
:10169C0007301201D2B20B4483F800230AE03B68F6
:1016AC00DAB20849FB7903F00F03043B1201D2B202
:1016BC000B441A7600BF0C37BD4680BC704700BF88
:1016CC0000E100E000ED00E080B489B000AFF8600C
:1016DC00B9607A60FB6803F00703FB61FB69C3F137
:1016EC000703042B28BF0423BB61FB690433062BBF
:1016FC0002D9FB69033B00E000237B614FF0FF3212
:10170C00BB6902FA03F3DA43BB681A407B699A405F
:10171C004FF0FF317B6901FA03F3D9437B680B402F
:10172C00134318462437BD4680BC704780B582B041
:10173C0000AF78607B68013BB3F1807F01D301235C
:10174C000FE00A4A7B68013B53600F214FF0FF30DA
:10175C00FFF790FF054B00229A60044B07221A609A
:10176C00002318460837BD4680BD00BF10E000E0DE
:10177C0080B582B000AF78607868FFF72DFF00BFAE
:10178C000837BD4680BD80B586B000AF0346B96052
:10179C007A60FB7300237B61FFF742FF78617A6804
:1017AC00B9687869FFF790FF024697F90F30114638
:1017BC001846FFF75FFF00BF1837BD4680BD80B5E8
:1017CC0082B000AF0346FB7197F907301846FFF75C
:1017DC0035FF00BF0837BD4680BD80B582B000AF75
:1017EC0078607868FFF7A2FF034618460837BD46B5
:1017FC0080BD000080B48BB000AF786039600023EE
:10180C007B6200233B6261E101227B6A02FA03F3F3
:10181C00FB613B681B68FA691340BB61BA69FB69E1
:10182C009A4240F050813B685B68974A93425ED085
:10183C00954A934275D8954A934258D0934A93420D
:10184C006FD8934A934252D0914A934269D8914AA5
:10185C0093424CD08F4A934263D88F4A934246D0DE
:10186C008D4A93425DD8122B2AD8122B59D801A23B
:10187C0052F823F0FB180008D5180008E7180008E8
:10188C00291900082F1900082F1900082F19000812
:10189C002F1900082F1900082F1900082F190008FC
:1018AC002F1900082F1900082F1900082F190008EC
:1018BC002F1900082F190008DD180008F11800086E
:1018CC00764A934213D02CE03B68DB683B6229E0FC
:1018DC003B68DB6804333B6224E03B68DB6808331D
:1018EC003B621FE03B68DB680C333B621AE03B68F1
:1018FC009B68002B02D104233B6213E03B689B687E
:10190C00012B05D108233B627B68FA691A6109E057
:10191C0008233B627B68FA695A6103E000233B624F
:10192C0000E000BFBB69FF2B01D87B6801E07B683E
:10193C0004337B61BB69FF2B02D87B6A9B0002E0FE
:10194C007B6A083B9B003B617B691A680F213B69F2
:10195C0001FA03F3DB431A40396A3B6901FA03F3DA
:10196C001A437B691A603B685B6803F08053002B59
:10197C0000F0A9804A4B9B69494A43F001039361EB
:10198C00474B9B6903F00103BB60BB68454A7B6A0C
:10199C009B08023352F82330FB607B6A03F003038D
:1019AC009B000F2202FA03F3DB43FA681340FB603F
:1019BC007B683D4A93420DD07B683C4A934207D0EA
:1019CC007B683B4A934201D1022304E0032302E0EB
:1019DC00012300E000237A6A02F003029200934094
:1019EC00FA681343FB602F497B6A9B080233FA6841
:1019FC0041F823203B685B6803F48013002B06D06E
:101A0C002C4B9A682B49BB6913438B6006E0294B1E
:101A1C009A68BB69DB43274913408B603B685B6862
:101A2C0003F40013002B06D0224BDA682149BB6962
:101A3C001343CB6006E01F4BDA68BB69DB431D49DF
:101A4C001340CB603B685B6803F40033002B06D07B
:101A5C00184B5A681749BB6913434B6006E0154B8A
:101A6C005A68BB69DB43134913404B603B685B68A6
:101A7C0003F48033002B1FD00E4B1A680D49BB6941
:101A8C0013430B601FE000BF000032100000311048
:101A9C000000221000002110000012100000111094
:101AAC00001002400000014000080140000C014001
:101ABC0000100140000401400B4B1A68BB69DB436A
:101ACC00094913400B607B6A01337B623B681A68DF
:101ADC007B6A22FA03F3002B7FF496AE00BF00BFA3
:101AEC002C37BD4680BC70470004014080B483B0E5
:101AFC0000AF78600B467B8013467B707B78002BA5
:101B0C0003D07A887B681A6103E07B881A047B68AF
:101B1C001A6100BF0C37BD4680BC704780B485B0DD
:101B2C0000AF78600B467B807B68DB68FB607A8853
:101B3C00FB6813401A04FB68D9437B880B401A439B
:101B4C007B681A6100BF1437BD4680BC704700002B
:101B5C0080B582B000AF0346FB80084B5A69FB8806
:101B6C001340002B06D0054AFB885361FB881846AE
:101B7C00FFF778FA00BF0837BD4680BD000401406E
:101B8C0080B584B000AF78607B68002B01D1012355
:101B9C002BE17B6893F83D30DBB2002B06D17B68E0
:101BAC00002283F83C207868FFF784FB7B682422B2
:101BBC0083F83D207B681B681A687B681B6822F0E1
:101BCC0001021A607B681B681A687B681B6842F408
:101BDC0000421A607B681B681A687B681B6822F4D9
:101BEC0000421A6001F032F8F8607B685B68814A49
:101BFC00934207D8FB68804A934294BF0123002389
:101C0C00DBB206E0FB687D4A934294BF01230023BC
:101C1C00DBB2002B01D00123E7E0FB68784AA2FB82
:101C2C0003239B0CBB607B681B685B6823F03F0144
:101C3C007B681B68BA680A435A607B681B681B6A1E
:101C4C0023F03F017B685B686A4A934202D8BB6809
:101C5C00013309E0BB684FF4967202FB03F3694A47
:101C6C00A2FB03239B0901337A6812680B431362AE
:101C7C007B681B68DB6923F44F4222F0FF027B6810
:101C8C005B685C498B4219D8FB68591E7B685B68A2
:101C9C005B00B1FBF3F3591C40F6FC730B40002BBB
:101CAC000AD0FB68591E7B685B685B00B1FBF3F3E1
:101CBC000133C3F30B0351E004234FE07B689B68B3
:101CCC00002B11D1FB68581E7B6859680B465B00D2
:101CDC000B44B0FBF3F30133C3F30B03002B0CBF2A
:101CEC0001230023DBB212E0FB68581E7B685968A5
:101CFC000B469B000B4499000B44B0FBF3F30133F0
:101D0C00C3F30B03002B0CBF01230023DBB2002B0E
:101D1C0001D0012322E07B689B68002B0ED1FB686D
:101D2C00581E7B6859680B465B000B44B0FBF3F301
:101D3C000133C3F30B0343F400430FE0FB68581E5D
:101D4C007B6859680B469B000B4499000B44B0FB15
:101D5C00F3F30133C3F30B0343F44043796809688D
:101D6C001343CB617B681B681B6823F0C0017B6845
:101D7C00DA697B681B6A1A437B681B680A431A6022
:101D8C007B681B689B6823F4034323F0FF037A688A
:101D9C0011697A68D26811437A6812680B439360B0
:101DAC007B681B68DB6823F0FF017B685A697B68E2
:101DBC009B691A437B681B680A43DA607B681B6863
:101DCC001A687B681B6842F001021A607B6800226B
:101DDC001A647B68202283F83D207B6800221A63FA
:101DEC007B68002283F83E20002318461037BD463E
:101DFC0080BD00BFA08601007F841E00FF083D004F
:101E0C0083DE1B43D34D621080B588B002AFF860FF
:101E1C007A601A460B467B8113463B81FFF7AEFB7B
:101E2C007861FB6893F83D30DBB2202B40F0E0800A
:101E3C007B690093192301227049F86800F064F95A
:101E4C000346002B01D00223D3E0FB6893F83C300F
:101E5C00012B01D10223CCE0FB68012283F83C204A
:101E6C00FB681B681B6803F00103012B07D0FB68A0
:101E7C001B681A68FB681B6842F001021A60FB6859
:101E8C001B681A68FB681B6822F400621A60FB6806
:101E9C00212283F83D20FB68102283F83E20FB684A
:101EAC0000221A64FB687A685A62FB683A895A8580
:101EBC00FB685B8D9AB2FB681A85FB68504ADA6244
:101ECC0079897B693A6AF86800F09CF80346002B24
:101EDC0001D001238DE000233B61FB681B685B692B
:101EEC003B61FB681B689B693B613B6966E07A69F7
:101EFC00396AF86800F022FA0346002B0DD0FB6813
:101F0C001B6C042B07D1FB681B681A68FB681B68E9
:101F1C0042F400721A6001236BE0FB685B6A1A786A
:101F2C00FB681B681A61FB685B6A5A1CFB685A6287
:101F3C00FB685B8D9BB2013B9AB2FB685A85FB68D0
:101F4C001B8D013B9AB2FB681A85FB681B685B69A9
:101F5C0003F00403042B1BD1FB681B8D002B17D043
:101F6C00FB685B6A1A78FB681B681A61FB685B6A22
:101F7C005A1CFB685A62FB685B8D9BB2013B9AB2A0
:101F8C00FB685A85FB681B8D013B9AB2FB681A856E
:101F9C007A69396AF86800F019FA0346002B0DD0FB
:101FAC00FB681B6C042B07D1FB681B681A68FB6869
:101FBC001B6842F400721A6001231AE0FB681B8D47
:101FCC00002B94D1FB681B681A68FB681B6842F4F1
:101FDC0000721A60FB68202283F83D20FB68002207
:101FEC0083F83E20FB68002283F83C20002300E0AD
:101FFC00022318461837BD4680BD00BF02001000F2
:10200C000000FFFF80B588B002AFF8607A603B60DB
:10201C000B467B81FB68DB6A7B617B69082B06D0F6
:10202C007B69012B03D07B6913F5803F08D1FB68DA
:10203C001B681A68FB681B6842F480721A600BE01C
:10204C00FB681B6B122B07D1FB681B681A68FB68BB
:10205C001B6842F480721A603B6800937B68002214
:10206C004FF00111F86800F04FF80346002B0DD02B
:10207C00FB681B681B6803F48073B3F5807F03D186
:10208C00FB684FF400721A64032335E0FB681B698C
:10209C00B3F5804F08D17B89DBB21A46FB681B680D
:1020AC0002F0FE021A611BE07B89DB11DBB203F04C
:1020BC000603DBB263F00F03DAB2FB681B681A612C
:1020CC003B687A680E49F86800F098F80346002BD4
:1020DC0001D0012310E07B89DAB2FB681B681A611E
:1020EC003B687A680749F86800F088F80346002BCB
:1020FC0001D0012300E0002318461837BD4680BDEF
:10210C00080001000200010080B584B000AFF86047
:10211C00B9603B601346FB7148E03B68B3F1FF3F8D
:10212C0044D0FFF72BFA0246BB69D31A3A689A429D
:10213C0002D33B68002B39D1BB681B0CDBB2012BE3
:10214C000DD1FB681B685B69DA43BB6813409BB21B
:10215C00002B0CBF01230023DBB21A460CE0FB68FA
:10216C001B689B69DA43BB6813409BB2002B0CBF06
:10217C0001230023DBB21A46FB799A4216D1FB6885
:10218C0000221A63FB68202283F83D20FB680022A2
:10219C0083F83E20FB681B6C43F02002FB681A643A
:1021AC00FB68002283F83C20012323E0BB681B0C56
:1021BC00DBB2012B0DD1FB681B685B69DA43BB6892
:1021CC0013409BB2002B0CBF01230023DBB21A4639
:1021DC000CE0FB681B689B69DA43BB6813409BB23D
:1021EC00002B0CBF01230023DBB21A46FB799A4269
:1021FC0093D0002318461037BD4680BD80B584B0FF
:10220C0000AFF860B9607A603B6071E0FB681B68F6
:10221C005B6903F48063B3F5806F23D1FB681B68A3
:10222C001A68FB681B6842F400721A60FB681B6832
:10223C006FF480625A61FB6800221A63FB682022EB
:10224C0083F83D20FB68002283F83E20FB681B6C62
:10225C0043F00402FB681A64FB68002283F83C20FC
:10226C00012367E07B68B3F1FF3F41D0FFF786F9AC
:10227C0002463B68D31A7A689A4202D37B68002BD9
:10228C0036D1BB681B0CDBB2012B0CD1FB681B6875
:10229C005B69DA43BB6813409BB2002B14BF01236C
:1022AC000023DBB20BE0FB681B689B69DA43BB685D
:1022BC0013409BB2002B14BF01230023DBB2002B75
:1022CC0016D0FB6800221A63FB68202283F83D209D
:1022DC00FB68002283F83E20FB681B6C43F0200255
:1022EC00FB681A64FB68002283F83C20012321E080
:1022FC00BB681B0CDBB2012B0CD1FB681B685B6948
:10230C00DA43BB6813409BB2002B14BF012300239C
:10231C00DBB20BE0FB681B689B69DA43BB681340BC
:10232C009BB2002B14BF01230023DBB2002B7FF4E4
:10233C006DAF002318461037BD4680BD80B584B004
:10234C0000AFF860B9607A6034E0F86800F086F8A5
:10235C000346002B01D0012334E0BB68B3F1FF3FEF
:10236C0028D0FFF70BF902467B68D31ABA689A4259
:10237C0002D3BB68002B1DD1FB681B685B6903F0A3
:10238C008003802B16D0FB6800221A63FB68202286
:10239C0083F83D20FB68002283F83E20FB681B6C11
:1023AC0043F02002FB681A64FB68002283F83C208F
:1023BC00012307E0FB681B685B6903F08003802B3B
:1023CC00C3D1002318461037BD4680BD80B584B0FC
:1023DC0000AFF860B9607A6034E0F86800F03EF85D
:1023EC000346002B01D0012334E0BB68B3F1FF3F5F
:1023FC0028D0FFF7C3F802467B68D31ABA689A4212
:10240C0002D3BB68002B1DD1FB681B685B6903F012
:10241C000403042B16D0FB6800221A63FB682022ED
:10242C0083F83D20FB68002283F83E20FB681B6C80
:10243C0043F02002FB681A64FB68002283F83C20FE
:10244C00012307E0FB681B685B6903F00403042BA2
:10245C00C3D1002318461037BD4680BD80B483B06D
:10246C0000AF78607B681B685B6903F48063B3F52D
:10247C00806F1BD17B681B686FF480625A617B682C
:10248C0000221A637B68202283F83D207B6800229F
:10249C0083F83E207B681B6C43F004027B681A6453
:1024AC007B68002283F83C20012300E000231846BF
:1024BC000C37BD4680BC704780B586B000AF7860E5
:1024CC007B68002B01D1012372E27B681B6803F04F
:1024DC000103002B00F08780924B5B6803F00C0328
:1024EC00042B0CD08F4B5B6803F00C03082B12D120
:1024FC008C4B5B6803F48033B3F5803F0BD1894B75
:10250C001B6803F40033002B6CD07B685B68002BDA
:10251C0068D101234CE27B685B68B3F5803F06D140
:10252C00804B1B687F4A43F4803313602EE07B683A
:10253C005B68002B0CD17B4B1B687A4A23F48033ED
:10254C001360784B1B68774A23F4802313601DE0DB
:10255C007B685B68B3F5A02F0CD1724B1B68714A7A
:10256C0043F4802313606F4B1B686E4A43F4803333
:10257C0013600BE06B4B1B686A4A23F480331360C7
:10258C00684B1B68674A23F4802313607B685B6885
:10259C00002B13D0FEF7F2FF386108E0FEF7EEFFD8
:1025AC0002463B69D31A642B01D9032300E25D4B2D
:1025BC001B6803F40033002BF0D014E0FEF7DEFFB1
:1025CC00386108E0FEF7DAFF02463B69D31A642B48
:1025DC0001D90323ECE1534B1B6803F40033002BAC
:1025EC00F0D100E000BF7B681B6803F00203002BF6
:1025FC0063D04C4B5B6803F00C03002B0BD0494BA6
:10260C005B6803F00C03082B1CD1464B5B6803F48E
:10261C008033002B16D1434B1B6803F00203002BB5
:10262C0005D07B681B69012B01D00123C0E13D4B18
:10263C001B6823F0F8027B685B69DB0039491343A4
:10264C000B603AE07B681B69002B20D0364B0122D3
:10265C001A60FEF793FF386108E0FEF78FFF024621
:10266C003B69D31A022B01D90323A1E12D4B1B6823
:10267C0003F00203002BF0D02A4B1B6823F0F80266
:10268C007B685B69DB00274913430B6015E0264B25
:10269C0000221A60FEF772FF386108E0FEF76EFF49
:1026AC0002463B69D31A022B01D9032380E11D4B4F
:1026BC001B6803F00203002BF0D17B681B6803F04E
:1026CC000803002B3AD07B689B69002B19D0174B61
:1026DC0001221A60FEF752FF386108E0FEF74EFF48
:1026EC0002463B69D31A022B01D9032360E10D4B3F
:1026FC005B6A03F00203002BF0D0012000F0BAFA61
:10270C001CE00A4B00221A60FEF738FF38610FE01C
:10271C00FEF734FF02463B69D31A022B08D9032378
:10272C0046E100BF001002400000424280044242D9
:10273C00924B5B6A03F00203002BE9D17B681B68A8
:10274C0003F00403002B00F0A6800023FB758B4BD9
:10275C00DB6903F08053002B0DD1884BDB69874A72
:10276C0043F08053D361854BDB6903F08053BB602E
:10277C00BB680123FB75824B1B6803F48073002B31
:10278C0018D17F4B1B687E4A43F480731360FEF7AD
:10279C00F5FE386108E0FEF7F1FE02463B69D31AFC
:1027AC00642B01D9032303E1754B1B6803F480737D
:1027BC00002BF0D07B68DB68012B06D16F4B1B6ABA
:1027CC006E4A43F0010313622DE07B68DB68002B3B
:1027DC000CD16A4B1B6A694A23F001031362674BE5
:1027EC001B6A664A23F0040313621CE07B68DB68F7
:1027FC00052B0CD1614B1B6A604A43F00403136236
:10280C005E4B1B6A5D4A43F0010313620BE05B4BAA
:10281C001B6A5A4A23F001031362584B1B6A574A2E
:10282C0023F0040313627B68DB68002B15D0FEF7E2
:10283C00A5FE38610AE0FEF7A1FE02463B69D31AF9
:10284C0041F28832934201D90323B1E04B4B1B6A0E
:10285C0003F00203002BEED014E0FEF78FFE38617C
:10286C000AE0FEF78BFE02463B69D31A41F288322E
:10287C00934201D903239BE0404B1B6A03F00203F4
:10288C00002BEED1FB7D012B05D13C4BDB693B4A88
:10289C0023F08053D3617B68DB69002B00F08780C9
:1028AC00364B5B6803F00C03082B61D07B68DB694B
:1028BC00022B46D1334B00221A60FEF75FFE3861C3
:1028CC0008E0FEF75BFE02463B69D31A022B01D9E6
:1028DC0003236DE0294B1B6803F00073002BF0D130
:1028EC007B681B6AB3F5803F08D1244B5B6823F4EB
:1028FC0000327B689B68214913434B601F4B5B681C
:10290C0023F474127B68196A7B685B6A0B431B495E
:10291C0013434B601B4B01221A60FEF72FFE3861EC
:10292C0008E0FEF72BFE02463B69D31A022B01D9B5
:10293C0003233DE0114B1B6803F00073002BF0D018
:10294C0035E0104B00221A60FEF718FE386108E0E3
:10295C00FEF714FE02463B69D31A022B01D903235E
:10296C0026E0064B1B6803F00073002BF0D11EE031
:10297C007B68DB69012B07D1012319E000100240B1
:10298C0000700040600042420B4B5B68FB60FB68D0
:10299C0003F480327B681B6A9A4206D1FB6803F40D
:1029AC0070127B685B6A9A4201D0012300E000231D
:1029BC0018461837BD4680BD0010024080B584B063
:1029CC0000AF786039607B68002B01D10123D0E027
:1029DC006A4B1B6803F007033A689A4210D9674B9D
:1029EC001B6823F0070265493B6813430B60634B7C
:1029FC001B6803F007033A689A4201D00123B8E040
:102A0C007B681B6803F00203002B20D07B681B68DB
:102A1C0003F00403002B05D0594B5B68584A43F470
:102A2C00E06353607B681B6803F00803002B05D040
:102A3C00534B5B68524A43F460535360504B5B6892
:102A4C0023F0F0027B689B684D4913434B607B6815
:102A5C001B6803F00103002B40D07B685B68012BE3
:102A6C0007D1474B1B6803F40033002B15D101230E
:102A7C007FE07B685B68022B07D1414B1B6803F03E
:102A8C000073002B09D1012373E03D4B1B6803F04D
:102A9C000203002B01D101236BE0394B5B6823F05F
:102AAC0003027B685B68364913434B60FEF766FD97
:102ABC00F8600AE0FEF762FD0246FB68D31A41F2A9
:102ACC008832934201D9032353E02D4B5B6803F00A
:102ADC000C027B685B689B009A42EBD1274B1B680E
:102AEC0003F007033A689A4210D2244B1B6823F078
:102AFC00070222493B6813430B60204B1B6803F011
:102B0C0007033A689A4201D0012332E07B681B68C4
:102B1C0003F00403002B08D0194B5B6823F4E0622C
:102B2C007B68DB68164913434B607B681B6803F0BA
:102B3C000803002B09D0124B5B6823F460527B68AE
:102B4C001B69DB000E4913434B6000F021F8024671
:102B5C000B4B5B681B0903F00F030A49CB5C22FA91
:102B6C0003F3094A1360094B1B681846FEF7C4FCB3
:102B7C00002318461037BD4680BD00BF0020024020
:102B8C0000100240C42E0008140000201800002081
:102B9C0080B487B000AF0023FB600023BB60002330
:102BAC007B6100237B6000233B611E4B5B68FB60F9
:102BBC00FB6803F00C03042B02D0082B03D027E096
:102BCC00194B3B6127E0FB689B0C03F00F03174A82
:102BDC00D35C7B60FB6803F48033002B10D0114B6B
:102BEC005B685B0C03F00103114AD35CBB607B6830
:102BFC000D4A03FB02F2BB68B2FBF3F37B6104E00A
:102C0C007B680C4A02FB03F37B617B693B6102E04E
:102C1C00054B3B6100BF3B6918461C37BD4680BC69
:102C2C00704700BF0010024000127A00DC2E000832
:102C3C00EC2E000800093D0080B400AF024B1B686D
:102C4C001846BD4680BC70471400002080B500AF0C
:102C5C00FFF7F2FF0246054B5B681B0A03F0070304
:102C6C000349CB5C22FA03F3184680BD00100240E6
:102C7C00D42E000880B485B000AF78600A4B1B6876
:102C8C000A4AA2FB03235B0A7A6802FB03F3FB608C
:102C9C0000BFFB685A1EFA60002BF9D100BF00BFC1
:102CAC001437BD4680BC704714000020D34D621011
:102CBC00024B0146186800F023B800BF6C000020DE
:102CCC0070B50E4E0C463168054611B900F0ACF8E3
:102CDC0030602146284600F0A7F8431C0AD0C41CDB
:102CEC0024F00304A04207D0211A284600F09CF8D7
:102CFC00013001D14FF0FF34204670BD200100207F
:102D0C002DE9F843CD1C25F0030508350C2D38BFF3
:102D1C000C25002D074601DBA94205D90C23002602
:102D2C003B603046BDE8F883DFF8D08000F068F8EF
:102D3C00D8F800301C465CBB29463846FFF7C0FF6C
:102D4C00431C044655D1D8F800402646002E45D1E8
:102D5C00002C48D023683146384604EB030900F0B8
:102D6C0063F881453FD1216838466D1A2946FFF733
:102D7C00A7FF013037D023682B442360D8F80030EC
:102D8C00002B38D05A68A2422BD100225A600FE097
:102D9C002268521B1FD40B2A17D96119A342256034
:102DAC0018BF5960636808BFC8F8001062514B60C7
:102DBC00384604F10B0600F029F826F00706231D0F
:102DCC00F21AAED09B1BA350ABE7A3426268DDD1D5
:102DDC00C8F80020ECE723466468ACE73446766814
:102DEC00B4E71346CCE70C2338463B6000F00EF8F2
:102DFC0097E72560DCE75B60FFDE00BF1C0100206D
:102E0C00014800F04BB800BF60020020014800F000
:102E1C0046B800BF6002002003460244934200D132
:102E2C00704703F8011BF9E738B50023054D04463C
:102E3C0008462B60FEF7E8FA431C02D12B6803B15D
:102E4C00236038BD5C020020014B1868704700BF3E
:102E5C006C00002070B500260C4D0D4C641BA410AA
:102E6C00A64209D100F01CF800260A4D0A4C641B3E
:102E7C00A410A64205D170BD55F8043B9847013605
:102E8C00EEE755F8043B98470136F2E7F02E0008C0
:102E9C00F02E0008F02E0008F42E00087047704742
:102EAC00F8B500BFF8BC08BC9E467047F8B500BF2B
:082EBC00F8BC08BC9E467047FB
:102EC40000000000000000000102030406070809D6
:102ED40000000000010203040203040506070809B8
:0C2EE4000A0B0C0D0E0F10100102000074
:042EF00031010008A4
:042EF4000D010008C4
:102EF800303132333435363738392B2D2A2F2829BB
:102F0800616200000024F4001000000001000000CD
:102F180000000000240100208C010020F4010020A2
:102F28000000000000000000000000000000000099
:102F38000000000000000000000000000000000089
:102F48000000000000000000000000000000000079
:102F58000000000000000000000000002000002029
:040000050800148D4E
:00000001FF
